:020000040800F2
:10000000FF2700203D030008850300088503000842
:100010008503000885030008850300080000000030
:100020000000000000000000000000008503000840
:100030008503000800000000850300088503000810
:100040008503000885030008850300088503000870
:100050008503000885030008850300088503000860
:100060008503000885030008850300088503000850
:100070008503000885030008850300088503000840
:100080008503000885030008850300088503000830
:100090008503000885030008850300088503000820
:1000A0008503000885030008850300088503000810
:1000B0008503000885030008000000008503000890
:1000C0008503000800000000000000008503000810
:1000D0000000000085030008850300080000000000
:1000E0008503000885030008850300080000000060
:1000F0000000000000000000000000000000000000
:0C01000000000000000000005FF808F1A3
:10010C000348044B834202D0034B03B1184770479A
:10011C000000002000000020000000000548064BF5
:10012C001B1AD90F01EBA301491002D0034B03B1E9
:10013C00184770470000002000000020000000005D
:10014C0010B5064C237843B9FFF7DAFF044B13B113
:10015C000448AFF300800123237010BD0000002081
:10016C00000000008803000808B5044B1BB10449CB
:10017C000448AFF30080BDE80840CFE70000000062
:10018C00040000208803000870B50F4B0F4DAB42E4
:10019C00A3EB050607D00024B61055F8043B013438
:1001AC009847A642F9D800F0E9F8094D094B5E1BB7
:1001BC00AB424FEAA60606D0002455F8043B0134A6
:1001CC009847A642F9D870BDB0030008B0030008E8
:1001DC00B0030008B8030008002301461A4618466D
:1001EC0000F014B838B5074D074C2C1BA41005D0E3
:1001FC00013C55F8043D9847002CF9D1BDE8384036
:10020C0000F0C2B8BC030008B803000870B5154D67
:10021C002C68DCB165681F2D21DC80B14FF0010C1E
:10022C0004EB850ECEF88820D4F888610CFA05F220
:10023C0016430228C4F88861CEF8083109D06B1C2B
:10024C0002356360002044F8251070BD064C2C600C
:10025C00E0E7D4F88C311343C4F88C31EFE74FF05E
:10026C00FF3070BD1C00002020000020024B13B199
:10027C000248FFF7B1BF704700000000F101000811
:10028C00034BD3F800281206FBD5C3F804087047BB
:10029C000030014008B5411E11F8010F00B908BD2E
:1002AC00FFF7EEFFF8E782B00190019B5A1E019216
:1002BC00002BFAD102B07047184A08B59369184D53
:1002CC0043F4804343F005039361164B164CD3F86B
:1002DC00042822F0F002C3F80428D3F8042842F0D2
:1002EC00B002C3F8042803F54053D3F80C2822F4C9
:1002FC000052C3F80C2840F24132C3F80828D3F856
:10030C000C2842F4005242F00802C3F80C2828468C
:10031C00FFF7C0FF2046FFF7C6FFF8E700100240CA
:10032C00A00300080000014000350C0070470000DD
:10033C000C480D490D4A002302E0D458C450043334
:10034C00C4188C42F9D30A4A0A4C002301E013600A
:10035C000432A242FBD3FFF7E9FFFFF715FFFFF7CB
:10036C00ABFF70470000002000000020BC03000819
:10037C0000000020B0010020FEE70000F8B500BF2F
:10038C00F8BC08BC9E467047F8B500BFF8BC08BC6A
:04039C009E467047C2
:1003A00053544D33322055415254204F4B0D0A00C7
:0803B000790200087501000844
:0403B8004D010008EB
:040000050800033DAF
:00000001FF
